{
  "_format": "hh3-artifact-1",
  "contractName": "EventTicket",
  "sourceName": "contracts/EventTicket.sol",
  "abi": [
    {
      "anonymous": false,
      "inputs": [
        {
          "indexed": true,
          "internalType": "address",
          "name": "owner",
          "type": "address"
        },
        {
          "indexed": true,
          "internalType": "address",
          "name": "approved",
          "type": "address"
        },
        {
          "indexed": true,
          "internalType": "uint256",
          "name": "ticketId",
          "type": "uint256"
        }
      ],
      "name": "Approval",
      "type": "event"
    },
    {
      "anonymous": false,
      "inputs": [
        {
          "indexed": true,
          "internalType": "address",
          "name": "owner",
          "type": "address"
        },
        {
          "indexed": true,
          "internalType": "address",
          "name": "operator",
          "type": "address"
        },
        {
          "indexed": false,
          "internalType": "bool",
          "name": "approved",
          "type": "bool"
        }
      ],
      "name": "ApprovalForAll",
      "type": "event"
    },
    {
      "anonymous": false,
      "inputs": [
        {
          "indexed": true,
          "internalType": "uint256",
          "name": "eventId",
          "type": "uint256"
        },
        {
          "indexed": false,
          "internalType": "string",
          "name": "name",
          "type": "string"
        },
        {
          "indexed": true,
          "internalType": "address",
          "name": "creator",
          "type": "address"
        },
        {
          "indexed": false,
          "internalType": "uint256",
          "name": "totalTickets",
          "type": "uint256"
        },
        {
          "indexed": false,
          "internalType": "uint256",
          "name": "price",
          "type": "uint256"
        }
      ],
      "name": "EventCreated",
      "type": "event"
    },
    {
      "anonymous": false,
      "inputs": [
        {
          "indexed": true,
          "internalType": "uint256",
          "name": "ticketId",
          "type": "uint256"
        },
        {
          "indexed": true,
          "internalType": "uint256",
          "name": "eventId",
          "type": "uint256"
        },
        {
          "indexed": true,
          "internalType": "address",
          "name": "owner",
          "type": "address"
        },
        {
          "indexed": false,
          "internalType": "uint256",
          "name": "price",
          "type": "uint256"
        }
      ],
      "name": "TicketMinted",
      "type": "event"
    },
    {
      "anonymous": false,
      "inputs": [
        {
          "indexed": true,
          "internalType": "address",
          "name": "from",
          "type": "address"
        },
        {
          "indexed": true,
          "internalType": "address",
          "name": "to",
          "type": "address"
        },
        {
          "indexed": true,
          "internalType": "uint256",
          "name": "ticketId",
          "type": "uint256"
        }
      ],
      "name": "Transfer",
      "type": "event"
    },
    {
      "inputs": [
        {
          "internalType": "address",
          "name": "approved",
          "type": "address"
        },
        {
          "internalType": "uint256",
          "name": "ticketId",
          "type": "uint256"
        }
      ],
      "name": "approve",
      "outputs": [],
      "stateMutability": "nonpayable",
      "type": "function"
    },
    {
      "inputs": [
        {
          "internalType": "address",
          "name": "",
          "type": "address"
        }
      ],
      "name": "balanceOf",
      "outputs": [
        {
          "internalType": "uint256",
          "name": "",
          "type": "uint256"
        }
      ],
      "stateMutability": "view",
      "type": "function"
    },
    {
      "inputs": [
        {
          "internalType": "string",
          "name": "name",
          "type": "string"
        },
        {
          "internalType": "string",
          "name": "description",
          "type": "string"
        },
        {
          "internalType": "uint256",
          "name": "eventDate",
          "type": "uint256"
        },
        {
          "internalType": "string",
          "name": "venue",
          "type": "string"
        },
        {
          "internalType": "uint256",
          "name": "totalTickets",
          "type": "uint256"
        },
        {
          "internalType": "uint256",
          "name": "price",
          "type": "uint256"
        }
      ],
      "name": "createEvent",
      "outputs": [
        {
          "internalType": "uint256",
          "name": "",
          "type": "uint256"
        }
      ],
      "stateMutability": "nonpayable",
      "type": "function"
    },
    {
      "inputs": [
        {
          "internalType": "uint256",
          "name": "eventId",
          "type": "uint256"
        }
      ],
      "name": "deactivateEvent",
      "outputs": [],
      "stateMutability": "nonpayable",
      "type": "function"
    },
    {
      "inputs": [
        {
          "internalType": "uint256",
          "name": "",
          "type": "uint256"
        },
        {
          "internalType": "uint256",
          "name": "",
          "type": "uint256"
        }
      ],
      "name": "eventTickets",
      "outputs": [
        {
          "internalType": "uint256",
          "name": "",
          "type": "uint256"
        }
      ],
      "stateMutability": "view",
      "type": "function"
    },
    {
      "inputs": [
        {
          "internalType": "uint256",
          "name": "",
          "type": "uint256"
        }
      ],
      "name": "events",
      "outputs": [
        {
          "internalType": "uint256",
          "name": "eventId",
          "type": "uint256"
        },
        {
          "internalType": "string",
          "name": "name",
          "type": "string"
        },
        {
          "internalType": "string",
          "name": "description",
          "type": "string"
        },
        {
          "internalType": "uint256",
          "name": "eventDate",
          "type": "uint256"
        },
        {
          "internalType": "string",
          "name": "venue",
          "type": "string"
        },
        {
          "internalType": "address",
          "name": "creator",
          "type": "address"
        },
        {
          "internalType": "uint256",
          "name": "totalTickets",
          "type": "uint256"
        },
        {
          "internalType": "uint256",
          "name": "ticketsSold",
          "type": "uint256"
        },
        {
          "internalType": "uint256",
          "name": "price",
          "type": "uint256"
        },
        {
          "internalType": "bool",
          "name": "isActive",
          "type": "bool"
        }
      ],
      "stateMutability": "view",
      "type": "function"
    },
    {
      "inputs": [
        {
          "internalType": "uint256",
          "name": "",
          "type": "uint256"
        }
      ],
      "name": "getApproved",
      "outputs": [
        {
          "internalType": "address",
          "name": "",
          "type": "address"
        }
      ],
      "stateMutability": "view",
      "type": "function"
    },
    {
      "inputs": [
        {
          "internalType": "uint256",
          "name": "eventId",
          "type": "uint256"
        }
      ],
      "name": "getEvent",
      "outputs": [
        {
          "components": [
            {
              "internalType": "uint256",
              "name": "eventId",
              "type": "uint256"
            },
            {
              "internalType": "string",
              "name": "name",
              "type": "string"
            },
            {
              "internalType": "string",
              "name": "description",
              "type": "string"
            },
            {
              "internalType": "uint256",
              "name": "eventDate",
              "type": "uint256"
            },
            {
              "internalType": "string",
              "name": "venue",
              "type": "string"
            },
            {
              "internalType": "address",
              "name": "creator",
              "type": "address"
            },
            {
              "internalType": "uint256",
              "name": "totalTickets",
              "type": "uint256"
            },
            {
              "internalType": "uint256",
              "name": "ticketsSold",
              "type": "uint256"
            },
            {
              "internalType": "uint256",
              "name": "price",
              "type": "uint256"
            },
            {
              "internalType": "bool",
              "name": "isActive",
              "type": "bool"
            }
          ],
          "internalType": "struct EventTicket.Event",
          "name": "",
          "type": "tuple"
        }
      ],
      "stateMutability": "view",
      "type": "function"
    },
    {
      "inputs": [
        {
          "internalType": "uint256",
          "name": "eventId",
          "type": "uint256"
        }
      ],
      "name": "getEventTickets",
      "outputs": [
        {
          "internalType": "uint256[]",
          "name": "",
          "type": "uint256[]"
        }
      ],
      "stateMutability": "view",
      "type": "function"
    },
    {
      "inputs": [
        {
          "internalType": "address",
          "name": "owner",
          "type": "address"
        }
      ],
      "name": "getOwnerTickets",
      "outputs": [
        {
          "internalType": "uint256[]",
          "name": "",
          "type": "uint256[]"
        }
      ],
      "stateMutability": "view",
      "type": "function"
    },
    {
      "inputs": [
        {
          "internalType": "uint256",
          "name": "ticketId",
          "type": "uint256"
        }
      ],
      "name": "getTicket",
      "outputs": [
        {
          "components": [
            {
              "internalType": "uint256",
              "name": "ticketId",
              "type": "uint256"
            },
            {
              "internalType": "uint256",
              "name": "eventId",
              "type": "uint256"
            },
            {
              "internalType": "address",
              "name": "owner",
              "type": "address"
            },
            {
              "internalType": "uint256",
              "name": "purchasePrice",
              "type": "uint256"
            },
            {
              "internalType": "uint256",
              "name": "purchaseTime",
              "type": "uint256"
            },
            {
              "internalType": "bool",
              "name": "isValid",
              "type": "bool"
            }
          ],
          "internalType": "struct EventTicket.Ticket",
          "name": "",
          "type": "tuple"
        }
      ],
      "stateMutability": "view",
      "type": "function"
    },
    {
      "inputs": [
        {
          "internalType": "uint256",
          "name": "ticketId",
          "type": "uint256"
        }
      ],
      "name": "invalidateTicket",
      "outputs": [],
      "stateMutability": "nonpayable",
      "type": "function"
    },
    {
      "inputs": [
        {
          "internalType": "address",
          "name": "",
          "type": "address"
        },
        {
          "internalType": "address",
          "name": "",
          "type": "address"
        }
      ],
      "name": "isApprovedForAll",
      "outputs": [
        {
          "internalType": "bool",
          "name": "",
          "type": "bool"
        }
      ],
      "stateMutability": "view",
      "type": "function"
    },
    {
      "inputs": [
        {
          "internalType": "uint256",
          "name": "eventId",
          "type": "uint256"
        },
        {
          "internalType": "address",
          "name": "to",
          "type": "address"
        }
      ],
      "name": "mintTicket",
      "outputs": [],
      "stateMutability": "payable",
      "type": "function"
    },
    {
      "inputs": [],
      "name": "name",
      "outputs": [
        {
          "internalType": "string",
          "name": "",
          "type": "string"
        }
      ],
      "stateMutability": "pure",
      "type": "function"
    },
    {
      "inputs": [
        {
          "internalType": "uint256",
          "name": "ticketId",
          "type": "uint256"
        }
      ],
      "name": "ownerOf",
      "outputs": [
        {
          "internalType": "address",
          "name": "",
          "type": "address"
        }
      ],
      "stateMutability": "view",
      "type": "function"
    },
    {
      "inputs": [
        {
          "internalType": "address",
          "name": "",
          "type": "address"
        },
        {
          "internalType": "uint256",
          "name": "",
          "type": "uint256"
        }
      ],
      "name": "ownerTickets",
      "outputs": [
        {
          "internalType": "uint256",
          "name": "",
          "type": "uint256"
        }
      ],
      "stateMutability": "view",
      "type": "function"
    },
    {
      "inputs": [
        {
          "internalType": "address",
          "name": "from",
          "type": "address"
        },
        {
          "internalType": "address",
          "name": "to",
          "type": "address"
        },
        {
          "internalType": "uint256",
          "name": "ticketId",
          "type": "uint256"
        }
      ],
      "name": "safeTransferFrom",
      "outputs": [],
      "stateMutability": "nonpayable",
      "type": "function"
    },
    {
      "inputs": [
        {
          "internalType": "address",
          "name": "from",
          "type": "address"
        },
        {
          "internalType": "address",
          "name": "to",
          "type": "address"
        },
        {
          "internalType": "uint256",
          "name": "ticketId",
          "type": "uint256"
        },
        {
          "internalType": "bytes",
          "name": "data",
          "type": "bytes"
        }
      ],
      "name": "safeTransferFrom",
      "outputs": [],
      "stateMutability": "nonpayable",
      "type": "function"
    },
    {
      "inputs": [
        {
          "internalType": "address",
          "name": "operator",
          "type": "address"
        },
        {
          "internalType": "bool",
          "name": "approved",
          "type": "bool"
        }
      ],
      "name": "setApprovalForAll",
      "outputs": [],
      "stateMutability": "nonpayable",
      "type": "function"
    },
    {
      "inputs": [],
      "name": "symbol",
      "outputs": [
        {
          "internalType": "string",
          "name": "",
          "type": "string"
        }
      ],
      "stateMutability": "pure",
      "type": "function"
    },
    {
      "inputs": [
        {
          "internalType": "uint256",
          "name": "",
          "type": "uint256"
        }
      ],
      "name": "tickets",
      "outputs": [
        {
          "internalType": "uint256",
          "name": "ticketId",
          "type": "uint256"
        },
        {
          "internalType": "uint256",
          "name": "eventId",
          "type": "uint256"
        },
        {
          "internalType": "address",
          "name": "owner",
          "type": "address"
        },
        {
          "internalType": "uint256",
          "name": "purchasePrice",
          "type": "uint256"
        },
        {
          "internalType": "uint256",
          "name": "purchaseTime",
          "type": "uint256"
        },
        {
          "internalType": "bool",
          "name": "isValid",
          "type": "bool"
        }
      ],
      "stateMutability": "view",
      "type": "function"
    },
    {
      "inputs": [
        {
          "internalType": "uint256",
          "name": "ticketId",
          "type": "uint256"
        }
      ],
      "name": "tokenURI",
      "outputs": [
        {
          "internalType": "string",
          "name": "",
          "type": "string"
        }
      ],
      "stateMutability": "view",
      "type": "function"
    },
    {
      "inputs": [],
      "name": "totalEvents",
      "outputs": [
        {
          "internalType": "uint256",
          "name": "",
          "type": "uint256"
        }
      ],
      "stateMutability": "view",
      "type": "function"
    },
    {
      "inputs": [],
      "name": "totalTickets",
      "outputs": [
        {
          "internalType": "uint256",
          "name": "",
          "type": "uint256"
        }
      ],
      "stateMutability": "view",
      "type": "function"
    },
    {
      "inputs": [
        {
          "internalType": "address",
          "name": "from",
          "type": "address"
        },
        {
          "internalType": "address",
          "name": "to",
          "type": "address"
        },
        {
          "internalType": "uint256",
          "name": "ticketId",
          "type": "uint256"
        }
      ],
      "name": "transferFrom",
      "outputs": [],
      "stateMutability": "nonpayable",
      "type": "function"
    }
  ],
  "bytecode": "0x6080604052348015600e575f5ffd5b506146158061001c5f395ff3fe608060405260043610610180575f3560e01c8063957a632e116100d0578063ba87068611610089578063ca261ce111610063578063ca261ce1146105d8578063dd11247e14610614578063e985e9c51461063e578063f0ab716b1461067a57610180565b8063ba8706861461054a578063c7ddab3614610574578063c87b56dd1461059c57610180565b8063957a632e1461045057806395d89b4114610478578063a22cb465146104a2578063a7182051146104ca578063ade3e728146104e6578063b88d4fde1461052257610180565b806342842e0e1161013d5780636d1884e0116101175780636d1884e01461036057806370a082311461039c578063779cea77146103d85780637dc379fa1461041457610180565b806342842e0e146102bb57806350b44712146102e35780636352211e1461032457610180565b806306fdde0314610184578063081812fc146101ae578063095ea7b3146101ea5780630b7914301461021257806323b872dd146102575780632ef221f61461027f575b5f5ffd5b34801561018f575f5ffd5b506101986106b6565b6040516101a59190612d24565b60405180910390f35b3480156101b9575f5ffd5b506101d460048036038101906101cf9190612d88565b6106f3565b6040516101e19190612df2565b60405180910390f35b3480156101f5575f5ffd5b50610210600480360381019061020b9190612e35565b610723565b005b34801561021d575f5ffd5b5061023860048036038101906102339190612d88565b6108d4565b60405161024e9a99989796959493929190612e9c565b60405180910390f35b348015610262575f5ffd5b5061027d60048036038101906102789190612f4b565b610ae0565b005b34801561028a575f5ffd5b506102a560048036038101906102a091906130c7565b610dc1565b6040516102b291906131a4565b60405180910390f35b3480156102c6575f5ffd5b506102e160048036038101906102dc9190612f4b565b611052565b005b3480156102ee575f5ffd5b5061030960048036038101906103049190612d88565b611071565b60405161031b969594939291906131bd565b60405180910390f35b34801561032f575f5ffd5b5061034a60048036038101906103459190612d88565b6110d4565b6040516103579190612df2565b60405180910390f35b34801561036b575f5ffd5b5061038660048036038101906103819190612d88565b611172565b6040516103939190613376565b60405180910390f35b3480156103a7575f5ffd5b506103c260048036038101906103bd9190613396565b6113ed565b6040516103cf91906131a4565b60405180910390f35b3480156103e3575f5ffd5b506103fe60048036038101906103f991906133c1565b611402565b60405161040b91906131a4565b60405180910390f35b34801561041f575f5ffd5b5061043a60048036038101906104359190612d88565b61142d565b6040516104479190613478565b60405180910390f35b34801561045b575f5ffd5b5061047660048036038101906104719190612d88565b6114ee565b005b348015610483575f5ffd5b5061048c6115bd565b6040516104999190612d24565b60405180910390f35b3480156104ad575f5ffd5b506104c860048036038101906104c391906134bb565b6115fa565b005b6104e460048036038101906104df91906134f9565b611760565b005b3480156104f1575f5ffd5b5061050c60048036038101906105079190613396565b611da6565b60405161051991906135df565b60405180910390f35b34801561052d575f5ffd5b506105486004803603810190610543919061369d565b611e39565b005b348015610555575f5ffd5b5061055e611e4a565b60405161056b91906131a4565b60405180910390f35b34801561057f575f5ffd5b5061059a60048036038101906105959190612d88565b611e50565b005b3480156105a7575f5ffd5b506105c260048036038101906105bd9190612d88565b611ffd565b6040516105cf9190612d24565b60405180910390f35b3480156105e3575f5ffd5b506105fe60048036038101906105f99190612d88565b6123ce565b60405161060b91906135df565b60405180910390f35b34801561061f575f5ffd5b50610628612435565b60405161063591906131a4565b60405180910390f35b348015610649575f5ffd5b50610664600480360381019061065f919061371d565b61243b565b604051610671919061375b565b60405180910390f35b348015610685575f5ffd5b506106a0600480360381019061069b9190612e35565b612465565b6040516106ad91906131a4565b60405180910390f35b60606040518060400160405280600c81526020017f4576656e74205469636b65740000000000000000000000000000000000000000815250905090565b6005602052805f5260405f205f915054906101000a900473ffffffffffffffffffffffffffffffffffffffff1681565b8060015f8281526020019081526020015f206005015f9054906101000a900460ff16610784576040517f08c379a000000000000000000000000000000000000000000000000000000000815260040161077b906137e4565b60405180910390fd5b3373ffffffffffffffffffffffffffffffffffffffff1660015f8481526020019081526020015f206002015f9054906101000a900473ffffffffffffffffffffffffffffffffffffffff1673ffffffffffffffffffffffffffffffffffffffff1614610825576040517f08c379a000000000000000000000000000000000000000000000000000000000815260040161081c9061384c565b60405180910390fd5b8260055f8481526020019081526020015f205f6101000a81548173ffffffffffffffffffffffffffffffffffffffff021916908373ffffffffffffffffffffffffffffffffffffffff160217905550818373ffffffffffffffffffffffffffffffffffffffff163373ffffffffffffffffffffffffffffffffffffffff167f8c5be1e5ebec7d5bd14f71427d1e84f3dd0314c0f7b2291e5b200ac8c7c3b92560405160405180910390a4505050565b5f602052805f5260405f205f91509050805f0154908060010180546108f890613897565b80601f016020809104026020016040519081016040528092919081815260200182805461092490613897565b801561096f5780601f106109465761010080835404028352916020019161096f565b820191905f5260205f20905b81548152906001019060200180831161095257829003601f168201915b50505050509080600201805461098490613897565b80601f01602080910402602001604051908101604052809291908181526020018280546109b090613897565b80156109fb5780601f106109d2576101008083540402835291602001916109fb565b820191905f5260205f20905b8154815290600101906020018083116109de57829003601f168201915b505050505090806003015490806004018054610a1690613897565b80601f0160208091040260200160405190810160405280929190818152602001828054610a4290613897565b8015610a8d5780601f10610a6457610100808354040283529160200191610a8d565b820191905f5260205f20905b815481529060010190602001808311610a7057829003601f168201915b505050505090806005015f9054906101000a900473ffffffffffffffffffffffffffffffffffffffff1690806006015490806007015490806008015490806009015f9054906101000a900460ff1690508a565b8060015f8281526020019081526020015f206005015f9054906101000a900460ff16610b41576040517f08c379a0000000000000000000000000000000000000000000000000000000008152600401610b38906137e4565b60405180910390fd5b8373ffffffffffffffffffffffffffffffffffffffff1660015f8481526020019081526020015f206002015f9054906101000a900473ffffffffffffffffffffffffffffffffffffffff1673ffffffffffffffffffffffffffffffffffffffff1614610be2576040517f08c379a0000000000000000000000000000000000000000000000000000000008152600401610bd990613911565b60405180910390fd5b8373ffffffffffffffffffffffffffffffffffffffff163373ffffffffffffffffffffffffffffffffffffffff161480610c77575060055f8381526020019081526020015f205f9054906101000a900473ffffffffffffffffffffffffffffffffffffffff1673ffffffffffffffffffffffffffffffffffffffff163373ffffffffffffffffffffffffffffffffffffffff16145b80610d03575060065f8573ffffffffffffffffffffffffffffffffffffffff1673ffffffffffffffffffffffffffffffffffffffff1681526020019081526020015f205f3373ffffffffffffffffffffffffffffffffffffffff1673ffffffffffffffffffffffffffffffffffffffff1681526020019081526020015f205f9054906101000a900460ff165b610d42576040517f08c379a0000000000000000000000000000000000000000000000000000000008152600401610d3990613979565b60405180910390fd5b5f73ffffffffffffffffffffffffffffffffffffffff168373ffffffffffffffffffffffffffffffffffffffff1603610db0576040517f08c379a0000000000000000000000000000000000000000000000000000000008152600401610da7906139e1565b60405180910390fd5b610dbb848484612490565b50505050565b5f5f875111610e05576040517f08c379a0000000000000000000000000000000000000000000000000000000008152600401610dfc90613a49565b60405180910390fd5b5f8311610e47576040517f08c379a0000000000000000000000000000000000000000000000000000000008152600401610e3e90613ab1565b60405180910390fd5b428511610e89576040517f08c379a0000000000000000000000000000000000000000000000000000000008152600401610e8090613b19565b60405180910390fd5b60075f815480929190610e9b90613b64565b91905055505f60075490506040518061014001604052808281526020018981526020018881526020018781526020018681526020013373ffffffffffffffffffffffffffffffffffffffff1681526020018581526020015f8152602001848152602001600115158152505f5f8381526020019081526020015f205f820151815f01556020820151816001019081610f329190613d4b565b506040820151816002019081610f489190613d4b565b50606082015181600301556080820151816004019081610f689190613d4b565b5060a0820151816005015f6101000a81548173ffffffffffffffffffffffffffffffffffffffff021916908373ffffffffffffffffffffffffffffffffffffffff16021790555060c0820151816006015560e082015181600701556101008201518160080155610120820151816009015f6101000a81548160ff0219169083151502179055509050503373ffffffffffffffffffffffffffffffffffffffff16817f81f945738beff591c3eab232e9f3265ce3f12263a2ec7acf84db8dc0fce26a278a878760405161103c93929190613e1a565b60405180910390a3809150509695505050505050565b61106c83838360405180602001604052805f815250611e39565b505050565b6001602052805f5260405f205f91509050805f015490806001015490806002015f9054906101000a900473ffffffffffffffffffffffffffffffffffffffff1690806003015490806004015490806005015f9054906101000a900460ff16905086565b5f8160015f8281526020019081526020015f206005015f9054906101000a900460ff16611136576040517f08c379a000000000000000000000000000000000000000000000000000000000815260040161112d906137e4565b60405180910390fd5b60015f8481526020019081526020015f206002015f9054906101000a900473ffffffffffffffffffffffffffffffffffffffff16915050919050565b61117a612c08565b5f5f8381526020019081526020015f20604051806101400160405290815f82015481526020016001820180546111af90613897565b80601f01602080910402602001604051908101604052809291908181526020018280546111db90613897565b80156112265780601f106111fd57610100808354040283529160200191611226565b820191905f5260205f20905b81548152906001019060200180831161120957829003601f168201915b5050505050815260200160028201805461123f90613897565b80601f016020809104026020016040519081016040528092919081815260200182805461126b90613897565b80156112b65780601f1061128d576101008083540402835291602001916112b6565b820191905f5260205f20905b81548152906001019060200180831161129957829003601f168201915b50505050508152602001600382015481526020016004820180546112d990613897565b80601f016020809104026020016040519081016040528092919081815260200182805461130590613897565b80156113505780601f1061132757610100808354040283529160200191611350565b820191905f5260205f20905b81548152906001019060200180831161133357829003601f168201915b50505050508152602001600582015f9054906101000a900473ffffffffffffffffffffffffffffffffffffffff1673ffffffffffffffffffffffffffffffffffffffff1673ffffffffffffffffffffffffffffffffffffffff168152602001600682015481526020016007820154815260200160088201548152602001600982015f9054906101000a900460ff1615151515815250509050919050565b6004602052805f5260405f205f915090505481565b6002602052815f5260405f20818154811061141b575f80fd5b905f5260205f20015f91509150505481565b611435612c6c565b60015f8381526020019081526020015f206040518060c00160405290815f820154815260200160018201548152602001600282015f9054906101000a900473ffffffffffffffffffffffffffffffffffffffff1673ffffffffffffffffffffffffffffffffffffffff1673ffffffffffffffffffffffffffffffffffffffff1681526020016003820154815260200160048201548152602001600582015f9054906101000a900460ff1615151515815250509050919050565b803373ffffffffffffffffffffffffffffffffffffffff165f5f8381526020019081526020015f206005015f9054906101000a900473ffffffffffffffffffffffffffffffffffffffff1673ffffffffffffffffffffffffffffffffffffffff161461158f576040517f08c379a000000000000000000000000000000000000000000000000000000000815260040161158690613ec6565b60405180910390fd5b5f5f5f8481526020019081526020015f206009015f6101000a81548160ff0219169083151502179055505050565b60606040518060400160405280600681526020017f5449434b45540000000000000000000000000000000000000000000000000000815250905090565b3373ffffffffffffffffffffffffffffffffffffffff168273ffffffffffffffffffffffffffffffffffffffff1603611668576040517f08c379a000000000000000000000000000000000000000000000000000000000815260040161165f90613f2e565b60405180910390fd5b8060065f3373ffffffffffffffffffffffffffffffffffffffff1673ffffffffffffffffffffffffffffffffffffffff1681526020019081526020015f205f8473ffffffffffffffffffffffffffffffffffffffff1673ffffffffffffffffffffffffffffffffffffffff1681526020019081526020015f205f6101000a81548160ff0219169083151502179055508173ffffffffffffffffffffffffffffffffffffffff163373ffffffffffffffffffffffffffffffffffffffff167f17307eab39ab6107e8899845ad3d59bd9653f200f220920489ca2b5937696c3183604051611754919061375b565b60405180910390a35050565b815f5f8281526020019081526020015f206009015f9054906101000a900460ff166117c0576040517f08c379a00000000000000000000000000000000000000000000000000000000081526004016117b790613fbc565b60405180910390fd5b5f5f8281526020019081526020015f20600601545f5f8381526020019081526020015f206007015410611828576040517f08c379a000000000000000000000000000000000000000000000000000000000815260040161181f90614024565b60405180910390fd5b5f73ffffffffffffffffffffffffffffffffffffffff168273ffffffffffffffffffffffffffffffffffffffff1603611896576040517f08c379a000000000000000000000000000000000000000000000000000000000815260040161188d9061408c565b60405180910390fd5b5f5f8481526020019081526020015f20600801543410156118ec576040517f08c379a00000000000000000000000000000000000000000000000000000000081526004016118e3906140f4565b60405180910390fd5b5f5f8481526020019081526020015f20600801543411156119cf575f3373ffffffffffffffffffffffffffffffffffffffff165f5f8681526020019081526020015f20600801543461193e9190614112565b60405161194a90614172565b5f6040518083038185875af1925050503d805f8114611984576040519150601f19603f3d011682016040523d82523d5f602084013e611989565b606091505b50509050806119cd576040517f08c379a00000000000000000000000000000000000000000000000000000000081526004016119c4906141d0565b60405180910390fd5b505b5f5f5f8581526020019081526020015f206005015f9054906101000a900473ffffffffffffffffffffffffffffffffffffffff1673ffffffffffffffffffffffffffffffffffffffff165f5f8681526020019081526020015f2060080154604051611a3990614172565b5f6040518083038185875af1925050503d805f8114611a73576040519150601f19603f3d011682016040523d82523d5f602084013e611a78565b606091505b5050905080611abc576040517f08c379a0000000000000000000000000000000000000000000000000000000008152600401611ab390614238565b60405180910390fd5b60085f815480929190611ace90613b64565b91905055505f60085490506040518060c001604052808281526020018681526020018573ffffffffffffffffffffffffffffffffffffffff1681526020015f5f8881526020019081526020015f206008015481526020014281526020016001151581525060015f8381526020019081526020015f205f820151815f0155602082015181600101556040820151816002015f6101000a81548173ffffffffffffffffffffffffffffffffffffffff021916908373ffffffffffffffffffffffffffffffffffffffff160217905550606082015181600301556080820151816004015560a0820151816005015f6101000a81548160ff0219169083151502179055509050505f5f8681526020019081526020015f206007015f815480929190611bf490613b64565b919050555060025f8681526020019081526020015f2081908060018154018082558091505060019003905f5260205f20015f909190919091505560035f8573ffffffffffffffffffffffffffffffffffffffff1673ffffffffffffffffffffffffffffffffffffffff1681526020019081526020015f2081908060018154018082558091505060019003905f5260205f20015f909190919091505560045f8573ffffffffffffffffffffffffffffffffffffffff1673ffffffffffffffffffffffffffffffffffffffff1681526020019081526020015f205f815480929190611cdc90613b64565b91905055508373ffffffffffffffffffffffffffffffffffffffff1685827f4fe0f5bb11eb6ab81c428fb83261719e5b22f84b3e1942cd491c3777504bb8515f5f8a81526020019081526020015f2060080154604051611d3c91906131a4565b60405180910390a4808473ffffffffffffffffffffffffffffffffffffffff165f73ffffffffffffffffffffffffffffffffffffffff167fddf252ad1be2c89b69c2b068fc378daa952ba7f163c4a11628f55a4df523b3ef60405160405180910390a45050505050565b606060035f8373ffffffffffffffffffffffffffffffffffffffff1673ffffffffffffffffffffffffffffffffffffffff1681526020019081526020015f20805480602002602001604051908101604052809291908181526020018280548015611e2d57602002820191905f5260205f20905b815481526020019060010190808311611e19575b50505050509050919050565b611e44848484610ae0565b50505050565b60075481565b8060015f8281526020019081526020015f206005015f9054906101000a900460ff16611eb1576040517f08c379a0000000000000000000000000000000000000000000000000000000008152600401611ea8906137e4565b60405180910390fd5b3373ffffffffffffffffffffffffffffffffffffffff1660015f8481526020019081526020015f206002015f9054906101000a900473ffffffffffffffffffffffffffffffffffffffff1673ffffffffffffffffffffffffffffffffffffffff161480611f8f57503373ffffffffffffffffffffffffffffffffffffffff165f5f60015f8681526020019081526020015f206001015481526020019081526020015f206005015f9054906101000a900473ffffffffffffffffffffffffffffffffffffffff1673ffffffffffffffffffffffffffffffffffffffff16145b611fce576040517f08c379a0000000000000000000000000000000000000000000000000000000008152600401611fc5906142c6565b60405180910390fd5b5f60015f8481526020019081526020015f206005015f6101000a81548160ff0219169083151502179055505050565b60608160015f8281526020019081526020015f206005015f9054906101000a900460ff16612060576040517f08c379a0000000000000000000000000000000000000000000000000000000008152600401612057906137e4565b60405180910390fd5b5f60015f8581526020019081526020015f206040518060c00160405290815f820154815260200160018201548152602001600282015f9054906101000a900473ffffffffffffffffffffffffffffffffffffffff1673ffffffffffffffffffffffffffffffffffffffff1673ffffffffffffffffffffffffffffffffffffffff1681526020016003820154815260200160048201548152602001600582015f9054906101000a900460ff16151515158152505090505f5f5f836020015181526020019081526020015f20604051806101400160405290815f820154815260200160018201805461214f90613897565b80601f016020809104026020016040519081016040528092919081815260200182805461217b90613897565b80156121c65780601f1061219d576101008083540402835291602001916121c6565b820191905f5260205f20905b8154815290600101906020018083116121a957829003601f168201915b505050505081526020016002820180546121df90613897565b80601f016020809104026020016040519081016040528092919081815260200182805461220b90613897565b80156122565780601f1061222d57610100808354040283529160200191612256565b820191905f5260205f20905b81548152906001019060200180831161223957829003601f168201915b505050505081526020016003820154815260200160048201805461227990613897565b80601f01602080910402602001604051908101604052809291908181526020018280546122a590613897565b80156122f05780601f106122c7576101008083540402835291602001916122f0565b820191905f5260205f20905b8154815290600101906020018083116122d357829003601f168201915b50505050508152602001600582015f9054906101000a900473ffffffffffffffffffffffffffffffffffffffff1673ffffffffffffffffffffffffffffffffffffffff1673ffffffffffffffffffffffffffffffffffffffff168152602001600682015481526020016007820154815260200160088201548152602001600982015f9054906101000a900460ff161515151581525050905080602001516123968661278c565b6123a3846040015161290a565b6040516020016123b5939291906143fc565b6040516020818303038152906040529350505050919050565b606060025f8381526020019081526020015f2080548060200260200160405190810160405280929190818152602001828054801561242957602002820191905f5260205f20905b815481526020019060010190808311612415575b50505050509050919050565b60085481565b6006602052815f5260405f20602052805f5260405f205f915091509054906101000a900460ff1681565b6003602052815f5260405f20818154811061247e575f80fd5b905f5260205f20015f91509150505481565b5f60035f8573ffffffffffffffffffffffffffffffffffffffff1673ffffffffffffffffffffffffffffffffffffffff1681526020019081526020015f2090505f5f90505b818054905081101561258457828282815481106124f5576124f461444d565b5b905f5260205f200154036125775781600183805490506125159190614112565b815481106125265761252561444d565b5b905f5260205f2001548282815481106125425761254161444d565b5b905f5260205f2001819055508180548061255f5761255e61447a565b5b600190038181905f5260205f20015f90559055612584565b80806001019150506124d5565b5060045f8573ffffffffffffffffffffffffffffffffffffffff1673ffffffffffffffffffffffffffffffffffffffff1681526020019081526020015f205f8154809291906125d2906144a7565b919050555060035f8473ffffffffffffffffffffffffffffffffffffffff1673ffffffffffffffffffffffffffffffffffffffff1681526020019081526020015f2082908060018154018082558091505060019003905f5260205f20015f909190919091505560045f8473ffffffffffffffffffffffffffffffffffffffff1673ffffffffffffffffffffffffffffffffffffffff1681526020019081526020015f205f81548092919061268590613b64565b91905055508260015f8481526020019081526020015f206002015f6101000a81548173ffffffffffffffffffffffffffffffffffffffff021916908373ffffffffffffffffffffffffffffffffffffffff1602179055505f60055f8481526020019081526020015f205f6101000a81548173ffffffffffffffffffffffffffffffffffffffff021916908373ffffffffffffffffffffffffffffffffffffffff160217905550818373ffffffffffffffffffffffffffffffffffffffff168573ffffffffffffffffffffffffffffffffffffffff167fddf252ad1be2c89b69c2b068fc378daa952ba7f163c4a11628f55a4df523b3ef60405160405180910390a450505050565b60605f82036127d2576040518060400160405280600181526020017f30000000000000000000000000000000000000000000000000000000000000008152509050612905565b5f8290505f5b5f82146128015780806127ea90613b64565b915050600a826127fa91906144fb565b91506127d8565b5f8167ffffffffffffffff81111561281c5761281b612fa3565b5b6040519080825280601f01601f19166020018201604052801561284e5781602001600182028036833780820191505090505b5090505f8290505b5f86146128fd5760018161286a9190614112565b90505f600a808861287b91906144fb565b612885919061452b565b876128909190614112565b603061289c9190614578565b90505f8160f81b9050808484815181106128b9576128b861444d565b5b60200101907effffffffffffffffffffffffffffffffffffffffffffffffffffffffffffff191690815f1a905350600a886128f491906144fb565b97505050612856565b819450505050505b919050565b60605f8273ffffffffffffffffffffffffffffffffffffffff165f1b90505f6040518060400160405280601081526020017f303132333435363738396162636465660000000000000000000000000000000081525090505f602a67ffffffffffffffff81111561297d5761297c612fa3565b5b6040519080825280601f01601f1916602001820160405280156129af5781602001600182028036833780820191505090505b5090507f3000000000000000000000000000000000000000000000000000000000000000815f815181106129e6576129e561444d565b5b60200101907effffffffffffffffffffffffffffffffffffffffffffffffffffffffffffff191690815f1a9053507f780000000000000000000000000000000000000000000000000000000000000081600181518110612a4957612a4861444d565b5b60200101907effffffffffffffffffffffffffffffffffffffffffffffffffffffffffffff191690815f1a9053505f5f90505b6014811015612bfc5782600485600c84612a9691906145ac565b60208110612aa757612aa661444d565b5b1a60f81b7effffffffffffffffffffffffffffffffffffffffffffffffffffffffffffff1916901c60f81c60ff1681518110612ae657612ae561444d565b5b602001015160f81c60f81b82600283612aff919061452b565b6002612b0b91906145ac565b81518110612b1c57612b1b61444d565b5b60200101907effffffffffffffffffffffffffffffffffffffffffffffffffffffffffffff191690815f1a90535082600f60f81b85600c84612b5e91906145ac565b60208110612b6f57612b6e61444d565b5b1a60f81b1660f81c60ff1681518110612b8b57612b8a61444d565b5b602001015160f81c60f81b82600283612ba4919061452b565b6003612bb091906145ac565b81518110612bc157612bc061444d565b5b60200101907effffffffffffffffffffffffffffffffffffffffffffffffffffffffffffff191690815f1a9053508080600101915050612a7c565b50809350505050919050565b6040518061014001604052805f815260200160608152602001606081526020015f8152602001606081526020015f73ffffffffffffffffffffffffffffffffffffffff1681526020015f81526020015f81526020015f81526020015f151581525090565b6040518060c001604052805f81526020015f81526020015f73ffffffffffffffffffffffffffffffffffffffff1681526020015f81526020015f81526020015f151581525090565b5f81519050919050565b5f82825260208201905092915050565b8281835e5f83830152505050565b5f601f19601f8301169050919050565b5f612cf682612cb4565b612d008185612cbe565b9350612d10818560208601612cce565b612d1981612cdc565b840191505092915050565b5f6020820190508181035f830152612d3c8184612cec565b905092915050565b5f604051905090565b5f5ffd5b5f5ffd5b5f819050919050565b612d6781612d55565b8114612d71575f5ffd5b50565b5f81359050612d8281612d5e565b92915050565b5f60208284031215612d9d57612d9c612d4d565b5b5f612daa84828501612d74565b91505092915050565b5f73ffffffffffffffffffffffffffffffffffffffff82169050919050565b5f612ddc82612db3565b9050919050565b612dec81612dd2565b82525050565b5f602082019050612e055f830184612de3565b92915050565b612e1481612dd2565b8114612e1e575f5ffd5b50565b5f81359050612e2f81612e0b565b92915050565b5f5f60408385031215612e4b57612e4a612d4d565b5b5f612e5885828601612e21565b9250506020612e6985828601612d74565b9150509250929050565b612e7c81612d55565b82525050565b5f8115159050919050565b612e9681612e82565b82525050565b5f61014082019050612eb05f83018d612e73565b8181036020830152612ec2818c612cec565b90508181036040830152612ed6818b612cec565b9050612ee5606083018a612e73565b8181036080830152612ef78189612cec565b9050612f0660a0830188612de3565b612f1360c0830187612e73565b612f2060e0830186612e73565b612f2e610100830185612e73565b612f3c610120830184612e8d565b9b9a5050505050505050505050565b5f5f5f60608486031215612f6257612f61612d4d565b5b5f612f6f86828701612e21565b9350506020612f8086828701612e21565b9250506040612f9186828701612d74565b9150509250925092565b5f5ffd5b5f5ffd5b7f4e487b71000000000000000000000000000000000000000000000000000000005f52604160045260245ffd5b612fd982612cdc565b810181811067ffffffffffffffff82111715612ff857612ff7612fa3565b5b80604052505050565b5f61300a612d44565b90506130168282612fd0565b919050565b5f67ffffffffffffffff82111561303557613034612fa3565b5b61303e82612cdc565b9050602081019050919050565b828183375f83830152505050565b5f61306b6130668461301b565b613001565b90508281526020810184848401111561308757613086612f9f565b5b61309284828561304b565b509392505050565b5f82601f8301126130ae576130ad612f9b565b5b81356130be848260208601613059565b91505092915050565b5f5f5f5f5f5f60c087890312156130e1576130e0612d4d565b5b5f87013567ffffffffffffffff8111156130fe576130fd612d51565b5b61310a89828a0161309a565b965050602087013567ffffffffffffffff81111561312b5761312a612d51565b5b61313789828a0161309a565b955050604061314889828a01612d74565b945050606087013567ffffffffffffffff81111561316957613168612d51565b5b61317589828a0161309a565b935050608061318689828a01612d74565b92505060a061319789828a01612d74565b9150509295509295509295565b5f6020820190506131b75f830184612e73565b92915050565b5f60c0820190506131d05f830189612e73565b6131dd6020830188612e73565b6131ea6040830187612de3565b6131f76060830186612e73565b6132046080830185612e73565b61321160a0830184612e8d565b979650505050505050565b61322581612d55565b82525050565b5f82825260208201905092915050565b5f61324582612cb4565b61324f818561322b565b935061325f818560208601612cce565b61326881612cdc565b840191505092915050565b61327c81612dd2565b82525050565b61328b81612e82565b82525050565b5f61014083015f8301516132a75f86018261321c565b50602083015184820360208601526132bf828261323b565b915050604083015184820360408601526132d9828261323b565b91505060608301516132ee606086018261321c565b5060808301518482036080860152613306828261323b565b91505060a083015161331b60a0860182613273565b5060c083015161332e60c086018261321c565b5060e083015161334160e086018261321c565b5061010083015161335661010086018261321c565b5061012083015161336b610120860182613282565b508091505092915050565b5f6020820190508181035f83015261338e8184613291565b905092915050565b5f602082840312156133ab576133aa612d4d565b5b5f6133b884828501612e21565b91505092915050565b5f5f604083850312156133d7576133d6612d4d565b5b5f6133e485828601612d74565b92505060206133f585828601612d74565b9150509250929050565b60c082015f8201516134135f85018261321c565b506020820151613426602085018261321c565b5060408201516134396040850182613273565b50606082015161344c606085018261321c565b50608082015161345f608085018261321c565b5060a082015161347260a0850182613282565b50505050565b5f60c08201905061348b5f8301846133ff565b92915050565b61349a81612e82565b81146134a4575f5ffd5b50565b5f813590506134b581613491565b92915050565b5f5f604083850312156134d1576134d0612d4d565b5b5f6134de85828601612e21565b92505060206134ef858286016134a7565b9150509250929050565b5f5f6040838503121561350f5761350e612d4d565b5b5f61351c85828601612d74565b925050602061352d85828601612e21565b9150509250929050565b5f81519050919050565b5f82825260208201905092915050565b5f819050602082019050919050565b5f61356b838361321c565b60208301905092915050565b5f602082019050919050565b5f61358d82613537565b6135978185613541565b93506135a283613551565b805f5b838110156135d25781516135b98882613560565b97506135c483613577565b9250506001810190506135a5565b5085935050505092915050565b5f6020820190508181035f8301526135f78184613583565b905092915050565b5f67ffffffffffffffff82111561361957613618612fa3565b5b61362282612cdc565b9050602081019050919050565b5f61364161363c846135ff565b613001565b90508281526020810184848401111561365d5761365c612f9f565b5b61366884828561304b565b509392505050565b5f82601f83011261368457613683612f9b565b5b813561369484826020860161362f565b91505092915050565b5f5f5f5f608085870312156136b5576136b4612d4d565b5b5f6136c287828801612e21565b94505060206136d387828801612e21565b93505060406136e487828801612d74565b925050606085013567ffffffffffffffff81111561370557613704612d51565b5b61371187828801613670565b91505092959194509250565b5f5f6040838503121561373357613732612d4d565b5b5f61374085828601612e21565b925050602061375185828601612e21565b9150509250929050565b5f60208201905061376e5f830184612e8d565b92915050565b7f5469636b657420646f6573206e6f74206578697374206f7220697320696e76615f8201527f6c69640000000000000000000000000000000000000000000000000000000000602082015250565b5f6137ce602383612cbe565b91506137d982613774565b604082019050919050565b5f6020820190508181035f8301526137fb816137c2565b9050919050565b7f4e6f7420746865207469636b6574206f776e65720000000000000000000000005f82015250565b5f613836601483612cbe565b915061384182613802565b602082019050919050565b5f6020820190508181035f8301526138638161382a565b9050919050565b7f4e487b71000000000000000000000000000000000000000000000000000000005f52602260045260245ffd5b5f60028204905060018216806138ae57607f821691505b6020821081036138c1576138c061386a565b5b50919050565b7f5469636b6574206e6f74206f776e65642062792066726f6d20616464726573735f82015250565b5f6138fb602083612cbe565b9150613906826138c7565b602082019050919050565b5f6020820190508181035f830152613928816138ef565b9050919050565b7f4e6f7420617574686f72697a656420746f207472616e736665720000000000005f82015250565b5f613963601a83612cbe565b915061396e8261392f565b602082019050919050565b5f6020820190508181035f83015261399081613957565b9050919050565b7f43616e6e6f74207472616e7366657220746f207a65726f2061646472657373005f82015250565b5f6139cb601f83612cbe565b91506139d682613997565b602082019050919050565b5f6020820190508181035f8301526139f8816139bf565b9050919050565b7f4576656e74206e616d652063616e6e6f7420626520656d7074790000000000005f82015250565b5f613a33601a83612cbe565b9150613a3e826139ff565b602082019050919050565b5f6020820190508181035f830152613a6081613a27565b9050919050565b7f4d7573742068617665206174206c65617374206f6e65207469636b65740000005f82015250565b5f613a9b601d83612cbe565b9150613aa682613a67565b602082019050919050565b5f6020820190508181035f830152613ac881613a8f565b9050919050565b7f4576656e742064617465206d75737420626520696e20746865206675747572655f82015250565b5f613b03602083612cbe565b9150613b0e82613acf565b602082019050919050565b5f6020820190508181035f830152613b3081613af7565b9050919050565b7f4e487b71000000000000000000000000000000000000000000000000000000005f52601160045260245ffd5b5f613b6e82612d55565b91507fffffffffffffffffffffffffffffffffffffffffffffffffffffffffffffffff8203613ba057613b9f613b37565b5b600182019050919050565b5f819050815f5260205f209050919050565b5f6020601f8301049050919050565b5f82821b905092915050565b5f60088302613c077fffffffffffffffffffffffffffffffffffffffffffffffffffffffffffffffff82613bcc565b613c118683613bcc565b95508019841693508086168417925050509392505050565b5f819050919050565b5f613c4c613c47613c4284612d55565b613c29565b612d55565b9050919050565b5f819050919050565b613c6583613c32565b613c79613c7182613c53565b848454613bd8565b825550505050565b5f5f905090565b613c90613c81565b613c9b818484613c5c565b505050565b5b81811015613cbe57613cb35f82613c88565b600181019050613ca1565b5050565b601f821115613d0357613cd481613bab565b613cdd84613bbd565b81016020851015613cec578190505b613d00613cf885613bbd565b830182613ca0565b50505b505050565b5f82821c905092915050565b5f613d235f1984600802613d08565b1980831691505092915050565b5f613d3b8383613d14565b9150826002028217905092915050565b613d5482612cb4565b67ffffffffffffffff811115613d6d57613d6c612fa3565b5b613d778254613897565b613d82828285613cc2565b5f60209050601f831160018114613db3575f8415613da1578287015190505b613dab8582613d30565b865550613e12565b601f198416613dc186613bab565b5f5b82811015613de857848901518255600182019150602085019450602081019050613dc3565b86831015613e055784890151613e01601f891682613d14565b8355505b6001600288020188555050505b505050505050565b5f6060820190508181035f830152613e328186612cec565b9050613e416020830185612e73565b613e4e6040830184612e73565b949350505050565b7f4f6e6c79206576656e742063726561746f722063616e20706572666f726d20745f8201527f68697320616374696f6e00000000000000000000000000000000000000000000602082015250565b5f613eb0602a83612cbe565b9150613ebb82613e56565b604082019050919050565b5f6020820190508181035f830152613edd81613ea4565b9050919050565b7f43616e6e6f7420617070726f76652073656c66000000000000000000000000005f82015250565b5f613f18601383612cbe565b9150613f2382613ee4565b602082019050919050565b5f6020820190508181035f830152613f4581613f0c565b9050919050565b7f4576656e7420646f6573206e6f74206578697374206f72206973206e6f7420615f8201527f6374697665000000000000000000000000000000000000000000000000000000602082015250565b5f613fa6602583612cbe565b9150613fb182613f4c565b604082019050919050565b5f6020820190508181035f830152613fd381613f9a565b9050919050565b7f4576656e7420697320736f6c64206f75740000000000000000000000000000005f82015250565b5f61400e601183612cbe565b915061401982613fda565b602082019050919050565b5f6020820190508181035f83015261403b81614002565b9050919050565b7f43616e6e6f74206d696e7420746f207a65726f206164647265737300000000005f82015250565b5f614076601b83612cbe565b915061408182614042565b602082019050919050565b5f6020820190508181035f8301526140a38161406a565b9050919050565b7f496e73756666696369656e74207061796d656e740000000000000000000000005f82015250565b5f6140de601483612cbe565b91506140e9826140aa565b602082019050919050565b5f6020820190508181035f83015261410b816140d2565b9050919050565b5f61411c82612d55565b915061412783612d55565b925082820390508181111561413f5761413e613b37565b5b92915050565b5f81905092915050565b50565b5f61415d5f83614145565b91506141688261414f565b5f82019050919050565b5f61417c82614152565b9150819050919050565b7f526566756e64206661696c6564000000000000000000000000000000000000005f82015250565b5f6141ba600d83612cbe565b91506141c582614186565b602082019050919050565b5f6020820190508181035f8301526141e7816141ae565b9050919050565b7f5061796d656e74207472616e73666572206661696c65640000000000000000005f82015250565b5f614222601783612cbe565b915061422d826141ee565b602082019050919050565b5f6020820190508181035f83015261424f81614216565b9050919050565b7f4e6f7420617574686f72697a656420746f20696e76616c6964617465207469635f8201527f6b65740000000000000000000000000000000000000000000000000000000000602082015250565b5f6142b0602383612cbe565b91506142bb82614256565b604082019050919050565b5f6020820190508181035f8301526142dd816142a4565b9050919050565b5f81905092915050565b7f4576656e743a20000000000000000000000000000000000000000000000000005f82015250565b5f6143226007836142e4565b915061432d826142ee565b600782019050919050565b5f61434282612cb4565b61434c81856142e4565b935061435c818560208601612cce565b80840191505092915050565b7f207c205469636b65742049443a200000000000000000000000000000000000005f82015250565b5f61439c600e836142e4565b91506143a782614368565b600e82019050919050565b7f207c204f776e65723a20000000000000000000000000000000000000000000005f82015250565b5f6143e6600a836142e4565b91506143f1826143b2565b600a82019050919050565b5f61440682614316565b91506144128286614338565b915061441d82614390565b91506144298285614338565b9150614434826143da565b91506144408284614338565b9150819050949350505050565b7f4e487b71000000000000000000000000000000000000000000000000000000005f52603260045260245ffd5b7f4e487b71000000000000000000000000000000000000000000000000000000005f52603160045260245ffd5b5f6144b182612d55565b91505f82036144c3576144c2613b37565b5b600182039050919050565b7f4e487b71000000000000000000000000000000000000000000000000000000005f52601260045260245ffd5b5f61450582612d55565b915061451083612d55565b9250826145205761451f6144ce565b5b828204905092915050565b5f61453582612d55565b915061454083612d55565b925082820261454e81612d55565b9150828204841483151761456557614564613b37565b5b5092915050565b5f60ff82169050919050565b5f6145828261456c565b915061458d8361456c565b9250828201905060ff8111156145a6576145a5613b37565b5b92915050565b5f6145b682612d55565b91506145c183612d55565b92508282019050808211156145d9576145d8613b37565b5b9291505056fea2646970667358221220cb1a321bb6de50c97053fab3909e8a5aa020c5b30157e1960b0baa4fd63ac9bd64736f6c634300081c0033",
  "linkReferences": {},
  "deployedLinkReferences": {},
  "immutableReferences": {},
  "inputSourceName": "project/contracts/EventTicket.sol",
  "buildInfoId": "solc-0_8_28-d3cf5377fe185d29e8840513bec94e248f7544c7"
}